{
  "_format": "hh-sol-artifact-1",
  "contractName": "ReputationBadge",
  "sourceName": "contracts/ReputationBadge.sol",
  "abi": [
    {
      "inputs": [],
      "stateMutability": "nonpayable",
      "type": "constructor"
    },
    {
      "inputs": [
        {
          "internalType": "address",
          "name": "sender",
          "type": "address"
        },
        {
          "internalType": "uint256",
          "name": "balance",
          "type": "uint256"
        },
        {
          "internalType": "uint256",
          "name": "needed",
          "type": "uint256"
        },
        {
          "internalType": "uint256",
          "name": "tokenId",
          "type": "uint256"
        }
      ],
      "name": "ERC1155InsufficientBalance",
      "type": "error"
    },
    {
      "inputs": [
        {
          "internalType": "address",
          "name": "approver",
          "type": "address"
        }
      ],
      "name": "ERC1155InvalidApprover",
      "type": "error"
    },
    {
      "inputs": [
        {
          "internalType": "uint256",
          "name": "idsLength",
          "type": "uint256"
        },
        {
          "internalType": "uint256",
          "name": "valuesLength",
          "type": "uint256"
        }
      ],
      "name": "ERC1155InvalidArrayLength",
      "type": "error"
    },
    {
      "inputs": [
        {
          "internalType": "address",
          "name": "operator",
          "type": "address"
        }
      ],
      "name": "ERC1155InvalidOperator",
      "type": "error"
    },
    {
      "inputs": [
        {
          "internalType": "address",
          "name": "receiver",
          "type": "address"
        }
      ],
      "name": "ERC1155InvalidReceiver",
      "type": "error"
    },
    {
      "inputs": [
        {
          "internalType": "address",
          "name": "sender",
          "type": "address"
        }
      ],
      "name": "ERC1155InvalidSender",
      "type": "error"
    },
    {
      "inputs": [
        {
          "internalType": "address",
          "name": "operator",
          "type": "address"
        },
        {
          "internalType": "address",
          "name": "owner",
          "type": "address"
        }
      ],
      "name": "ERC1155MissingApprovalForAll",
      "type": "error"
    },
    {
      "inputs": [
        {
          "internalType": "address",
          "name": "owner",
          "type": "address"
        }
      ],
      "name": "OwnableInvalidOwner",
      "type": "error"
    },
    {
      "inputs": [
        {
          "internalType": "address",
          "name": "account",
          "type": "address"
        }
      ],
      "name": "OwnableUnauthorizedAccount",
      "type": "error"
    },
    {
      "anonymous": false,
      "inputs": [
        {
          "indexed": true,
          "internalType": "address",
          "name": "account",
          "type": "address"
        },
        {
          "indexed": true,
          "internalType": "address",
          "name": "operator",
          "type": "address"
        },
        {
          "indexed": false,
          "internalType": "bool",
          "name": "approved",
          "type": "bool"
        }
      ],
      "name": "ApprovalForAll",
      "type": "event"
    },
    {
      "anonymous": false,
      "inputs": [
        {
          "indexed": true,
          "internalType": "uint256",
          "name": "badgeTypeId",
          "type": "uint256"
        },
        {
          "indexed": true,
          "internalType": "address",
          "name": "to",
          "type": "address"
        }
      ],
      "name": "BadgeMinted",
      "type": "event"
    },
    {
      "anonymous": false,
      "inputs": [
        {
          "indexed": true,
          "internalType": "uint256",
          "name": "badgeTypeId",
          "type": "uint256"
        },
        {
          "indexed": false,
          "internalType": "string",
          "name": "name",
          "type": "string"
        }
      ],
      "name": "BadgeTypeCreated",
      "type": "event"
    },
    {
      "anonymous": false,
      "inputs": [
        {
          "indexed": true,
          "internalType": "address",
          "name": "previousOwner",
          "type": "address"
        },
        {
          "indexed": true,
          "internalType": "address",
          "name": "newOwner",
          "type": "address"
        }
      ],
      "name": "OwnershipTransferred",
      "type": "event"
    },
    {
      "anonymous": false,
      "inputs": [
        {
          "indexed": true,
          "internalType": "address",
          "name": "operator",
          "type": "address"
        },
        {
          "indexed": true,
          "internalType": "address",
          "name": "from",
          "type": "address"
        },
        {
          "indexed": true,
          "internalType": "address",
          "name": "to",
          "type": "address"
        },
        {
          "indexed": false,
          "internalType": "uint256[]",
          "name": "ids",
          "type": "uint256[]"
        },
        {
          "indexed": false,
          "internalType": "uint256[]",
          "name": "values",
          "type": "uint256[]"
        }
      ],
      "name": "TransferBatch",
      "type": "event"
    },
    {
      "anonymous": false,
      "inputs": [
        {
          "indexed": true,
          "internalType": "address",
          "name": "operator",
          "type": "address"
        },
        {
          "indexed": true,
          "internalType": "address",
          "name": "from",
          "type": "address"
        },
        {
          "indexed": true,
          "internalType": "address",
          "name": "to",
          "type": "address"
        },
        {
          "indexed": false,
          "internalType": "uint256",
          "name": "id",
          "type": "uint256"
        },
        {
          "indexed": false,
          "internalType": "uint256",
          "name": "value",
          "type": "uint256"
        }
      ],
      "name": "TransferSingle",
      "type": "event"
    },
    {
      "anonymous": false,
      "inputs": [
        {
          "indexed": false,
          "internalType": "string",
          "name": "value",
          "type": "string"
        },
        {
          "indexed": true,
          "internalType": "uint256",
          "name": "id",
          "type": "uint256"
        }
      ],
      "name": "URI",
      "type": "event"
    },
    {
      "inputs": [
        {
          "internalType": "address",
          "name": "account",
          "type": "address"
        },
        {
          "internalType": "uint256",
          "name": "id",
          "type": "uint256"
        }
      ],
      "name": "balanceOf",
      "outputs": [
        {
          "internalType": "uint256",
          "name": "",
          "type": "uint256"
        }
      ],
      "stateMutability": "view",
      "type": "function"
    },
    {
      "inputs": [
        {
          "internalType": "address[]",
          "name": "accounts",
          "type": "address[]"
        },
        {
          "internalType": "uint256[]",
          "name": "ids",
          "type": "uint256[]"
        }
      ],
      "name": "balanceOfBatch",
      "outputs": [
        {
          "internalType": "uint256[]",
          "name": "",
          "type": "uint256[]"
        }
      ],
      "stateMutability": "view",
      "type": "function"
    },
    {
      "inputs": [
        {
          "internalType": "string",
          "name": "name",
          "type": "string"
        },
        {
          "internalType": "string",
          "name": "description",
          "type": "string"
        },
        {
          "internalType": "string",
          "name": "imageURI",
          "type": "string"
        }
      ],
      "name": "createBadgeType",
      "outputs": [
        {
          "internalType": "uint256",
          "name": "",
          "type": "uint256"
        }
      ],
      "stateMutability": "nonpayable",
      "type": "function"
    },
    {
      "inputs": [
        {
          "internalType": "uint256",
          "name": "badgeTypeId",
          "type": "uint256"
        }
      ],
      "name": "getBadgeType",
      "outputs": [
        {
          "components": [
            {
              "internalType": "uint256",
              "name": "id",
              "type": "uint256"
            },
            {
              "internalType": "string",
              "name": "name",
              "type": "string"
            },
            {
              "internalType": "string",
              "name": "description",
              "type": "string"
            },
            {
              "internalType": "string",
              "name": "imageURI",
              "type": "string"
            }
          ],
          "internalType": "struct ReputationBadge.BadgeType",
          "name": "",
          "type": "tuple"
        }
      ],
      "stateMutability": "view",
      "type": "function"
    },
    {
      "inputs": [
        {
          "internalType": "address",
          "name": "account",
          "type": "address"
        },
        {
          "internalType": "address",
          "name": "operator",
          "type": "address"
        }
      ],
      "name": "isApprovedForAll",
      "outputs": [
        {
          "internalType": "bool",
          "name": "",
          "type": "bool"
        }
      ],
      "stateMutability": "view",
      "type": "function"
    },
    {
      "inputs": [
        {
          "internalType": "address",
          "name": "to",
          "type": "address"
        },
        {
          "internalType": "uint256",
          "name": "badgeTypeId",
          "type": "uint256"
        }
      ],
      "name": "mintBadge",
      "outputs": [],
      "stateMutability": "nonpayable",
      "type": "function"
    },
    {
      "inputs": [],
      "name": "owner",
      "outputs": [
        {
          "internalType": "address",
          "name": "",
          "type": "address"
        }
      ],
      "stateMutability": "view",
      "type": "function"
    },
    {
      "inputs": [],
      "name": "renounceOwnership",
      "outputs": [],
      "stateMutability": "nonpayable",
      "type": "function"
    },
    {
      "inputs": [
        {
          "internalType": "address",
          "name": "from",
          "type": "address"
        },
        {
          "internalType": "address",
          "name": "to",
          "type": "address"
        },
        {
          "internalType": "uint256[]",
          "name": "ids",
          "type": "uint256[]"
        },
        {
          "internalType": "uint256[]",
          "name": "values",
          "type": "uint256[]"
        },
        {
          "internalType": "bytes",
          "name": "data",
          "type": "bytes"
        }
      ],
      "name": "safeBatchTransferFrom",
      "outputs": [],
      "stateMutability": "nonpayable",
      "type": "function"
    },
    {
      "inputs": [
        {
          "internalType": "address",
          "name": "from",
          "type": "address"
        },
        {
          "internalType": "address",
          "name": "to",
          "type": "address"
        },
        {
          "internalType": "uint256",
          "name": "id",
          "type": "uint256"
        },
        {
          "internalType": "uint256",
          "name": "value",
          "type": "uint256"
        },
        {
          "internalType": "bytes",
          "name": "data",
          "type": "bytes"
        }
      ],
      "name": "safeTransferFrom",
      "outputs": [],
      "stateMutability": "nonpayable",
      "type": "function"
    },
    {
      "inputs": [
        {
          "internalType": "address",
          "name": "operator",
          "type": "address"
        },
        {
          "internalType": "bool",
          "name": "approved",
          "type": "bool"
        }
      ],
      "name": "setApprovalForAll",
      "outputs": [],
      "stateMutability": "nonpayable",
      "type": "function"
    },
    {
      "inputs": [
        {
          "internalType": "bytes4",
          "name": "interfaceId",
          "type": "bytes4"
        }
      ],
      "name": "supportsInterface",
      "outputs": [
        {
          "internalType": "bool",
          "name": "",
          "type": "bool"
        }
      ],
      "stateMutability": "view",
      "type": "function"
    },
    {
      "inputs": [
        {
          "internalType": "address",
          "name": "newOwner",
          "type": "address"
        }
      ],
      "name": "transferOwnership",
      "outputs": [],
      "stateMutability": "nonpayable",
      "type": "function"
    },
    {
      "inputs": [
        {
          "internalType": "uint256",
          "name": "badgeTypeId",
          "type": "uint256"
        }
      ],
      "name": "uri",
      "outputs": [
        {
          "internalType": "string",
          "name": "",
          "type": "string"
        }
      ],
      "stateMutability": "view",
      "type": "function"
    }
  ],
  "bytecode": "0x6080604052600060045534801561001557600080fd5b50336040518060600160405280602481526020016135076024913961003f816100c760201b60201c565b50600073ffffffffffffffffffffffffffffffffffffffff168173ffffffffffffffffffffffffffffffffffffffff16036100b25760006040517f1e4fbdf70000000000000000000000000000000000000000000000000000000081526004016100a991906101e1565b60405180910390fd5b6100c1816100da60201b60201c565b5061051e565b80600290816100d6919061044c565b5050565b6000600360009054906101000a900473ffffffffffffffffffffffffffffffffffffffff16905081600360006101000a81548173ffffffffffffffffffffffffffffffffffffffff021916908373ffffffffffffffffffffffffffffffffffffffff1602179055508173ffffffffffffffffffffffffffffffffffffffff168173ffffffffffffffffffffffffffffffffffffffff167f8be0079c531659141344cd1fd0a4f28419497f9722a3daafe3b4186f6b6457e060405160405180910390a35050565b600073ffffffffffffffffffffffffffffffffffffffff82169050919050565b60006101cb826101a0565b9050919050565b6101db816101c0565b82525050565b60006020820190506101f660008301846101d2565b92915050565b600081519050919050565b7f4e487b7100000000000000000000000000000000000000000000000000000000600052604160045260246000fd5b7f4e487b7100000000000000000000000000000000000000000000000000000000600052602260045260246000fd5b6000600282049050600182168061027d57607f821691505b6020821081036102905761028f610236565b5b50919050565b60008190508160005260206000209050919050565b60006020601f8301049050919050565b600082821b905092915050565b6000600883026102f87fffffffffffffffffffffffffffffffffffffffffffffffffffffffffffffffff826102bb565b61030286836102bb565b95508019841693508086168417925050509392505050565b6000819050919050565b6000819050919050565b600061034961034461033f8461031a565b610324565b61031a565b9050919050565b6000819050919050565b6103638361032e565b61037761036f82610350565b8484546102c8565b825550505050565b600090565b61038c61037f565b61039781848461035a565b505050565b5b818110156103bb576103b0600082610384565b60018101905061039d565b5050565b601f821115610400576103d181610296565b6103da846102ab565b810160208510156103e9578190505b6103fd6103f5856102ab565b83018261039c565b50505b505050565b600082821c905092915050565b600061042360001984600802610405565b1980831691505092915050565b600061043c8383610412565b9150826002028217905092915050565b610455826101fc565b67ffffffffffffffff81111561046e5761046d610207565b5b6104788254610265565b6104838282856103bf565b600060209050601f8311600181146104b657600084156104a4578287015190505b6104ae8582610430565b865550610516565b601f1984166104c486610296565b60005b828110156104ec578489015182556001820191506020850194506020810190506104c7565b868310156105095784890151610505601f891682610412565b8355505b6001600288020188555050505b505050505050565b612fda8061052d6000396000f3fe608060405234801561001057600080fd5b50600436106100e95760003560e01c8063a22cb4651161008c578063e985e9c511610066578063e985e9c51461025a578063ee7103ac1461028a578063f242432a146102ba578063f2fde38b146102d6576100e9565b8063a22cb465146101f2578063e0e5fc4c1461020e578063e42bff661461023e576100e9565b80632eb2c2d6116100c85780632eb2c2d61461017e5780634e1273f41461019a578063715018a6146101ca5780638da5cb5b146101d4576100e9565b8062fdd58e146100ee57806301ffc9a71461011e5780630e89341c1461014e575b600080fd5b61010860048036038101906101039190611db4565b6102f2565b6040516101159190611e03565b60405180910390f35b61013860048036038101906101339190611e76565b61034c565b6040516101459190611ebe565b60405180910390f35b61016860048036038101906101639190611ed9565b61042e565b6040516101759190611f96565b60405180910390f35b610198600480360381019061019391906121b5565b6104ad565b005b6101b460048036038101906101af9190612347565b610555565b6040516101c1919061247d565b60405180910390f35b6101d261065e565b005b6101dc610672565b6040516101e991906124ae565b60405180910390f35b61020c600480360381019061020791906124f5565b61069c565b005b61022860048036038101906102239190611ed9565b6106b2565b60405161023591906125f0565b60405180910390f35b61025860048036038101906102539190611db4565b6108e3565b005b610274600480360381019061026f9190612612565b610993565b6040516102819190611ebe565b60405180910390f35b6102a4600480360381019061029f91906126f3565b610a27565b6040516102b19190611e03565b60405180910390f35b6102d460048036038101906102cf919061279a565b610b1c565b005b6102f060048036038101906102eb9190612831565b610bc4565b005b600080600083815260200190815260200160002060008473ffffffffffffffffffffffffffffffffffffffff1673ffffffffffffffffffffffffffffffffffffffff16815260200190815260200160002054905092915050565b60007fd9b67a26000000000000000000000000000000000000000000000000000000007bffffffffffffffffffffffffffffffffffffffffffffffffffffffff1916827bffffffffffffffffffffffffffffffffffffffffffffffffffffffff1916148061041757507f0e89341c000000000000000000000000000000000000000000000000000000007bffffffffffffffffffffffffffffffffffffffffffffffffffffffff1916827bffffffffffffffffffffffffffffffffffffffffffffffffffffffff1916145b80610427575061042682610c4a565b5b9050919050565b60606004548210610474576040517f08c379a000000000000000000000000000000000000000000000000000000000815260040161046b906128aa565b60405180910390fd5b61047d82610cb4565b61048683610d48565b604051602001610497929190612906565b6040516020818303038152906040529050919050565b60006104b7610e16565b90508073ffffffffffffffffffffffffffffffffffffffff168673ffffffffffffffffffffffffffffffffffffffff16141580156104fc57506104fa8682610993565b155b156105405780866040517fe237d92200000000000000000000000000000000000000000000000000000000815260040161053792919061292a565b60405180910390fd5b61054d8686868686610e1e565b505050505050565b606081518351146105a157815183516040517f5b059991000000000000000000000000000000000000000000000000000000008152600401610598929190612953565b60405180910390fd5b6000835167ffffffffffffffff8111156105be576105bd611fbd565b5b6040519080825280602002602001820160405280156105ec5781602001602082028036833780820191505090505b50905060005b8451811015610653576106296106118287610f1690919063ffffffff16565b6106248387610f2a90919063ffffffff16565b6102f2565b82828151811061063c5761063b61297c565b5b6020026020010181815250508060010190506105f2565b508091505092915050565b610666610f3e565b6106706000610fc5565b565b6000600360009054906101000a900473ffffffffffffffffffffffffffffffffffffffff16905090565b6106ae6106a7610e16565b838361108b565b5050565b6106ba611ce4565b60045482106106fe576040517f08c379a00000000000000000000000000000000000000000000000000000000081526004016106f5906128aa565b60405180910390fd5b6005600083815260200190815260200160002060405180608001604052908160008201548152602001600182018054610736906129da565b80601f0160208091040260200160405190810160405280929190818152602001828054610762906129da565b80156107af5780601f10610784576101008083540402835291602001916107af565b820191906000526020600020905b81548152906001019060200180831161079257829003601f168201915b505050505081526020016002820180546107c8906129da565b80601f01602080910402602001604051908101604052809291908181526020018280546107f4906129da565b80156108415780601f1061081657610100808354040283529160200191610841565b820191906000526020600020905b81548152906001019060200180831161082457829003601f168201915b5050505050815260200160038201805461085a906129da565b80601f0160208091040260200160405190810160405280929190818152602001828054610886906129da565b80156108d35780601f106108a8576101008083540402835291602001916108d3565b820191906000526020600020905b8154815290600101906020018083116108b657829003601f168201915b5050505050815250509050919050565b6108eb610f3e565b600454811061092f576040517f08c379a000000000000000000000000000000000000000000000000000000000815260040161092690612a57565b60405180910390fd5b61094b82826001604051806020016040528060008152506111fb565b8173ffffffffffffffffffffffffffffffffffffffff16817fc5ed7807acb8379bb92578426d8da29ca07151f8262832fb7dfa94468f933dbb60405160405180910390a35050565b6000600160008473ffffffffffffffffffffffffffffffffffffffff1673ffffffffffffffffffffffffffffffffffffffff16815260200190815260200160002060008373ffffffffffffffffffffffffffffffffffffffff1673ffffffffffffffffffffffffffffffffffffffff16815260200190815260200160002060009054906101000a900460ff16905092915050565b6000610a31610f3e565b6000600454905060046000815480929190610a4b90612aa6565b9190505550600060405180608001604052808381526020018781526020018681526020018581525090508060056000848152602001908152602001600020600082015181600001556020820151816001019081610aa89190612c9a565b506040820151816002019081610abe9190612c9a565b506060820151816003019081610ad49190612c9a565b50905050817fd0b88e91a437f63f35385889d2fe2060c9ac7b71988ab82357e1b52e40ac589987604051610b089190611f96565b60405180910390a281925050509392505050565b6000610b26610e16565b90508073ffffffffffffffffffffffffffffffffffffffff168673ffffffffffffffffffffffffffffffffffffffff1614158015610b6b5750610b698682610993565b155b15610baf5780866040517fe237d922000000000000000000000000000000000000000000000000000000008152600401610ba692919061292a565b60405180910390fd5b610bbc8686868686611294565b505050505050565b610bcc610f3e565b600073ffffffffffffffffffffffffffffffffffffffff168173ffffffffffffffffffffffffffffffffffffffff1603610c3e5760006040517f1e4fbdf7000000000000000000000000000000000000000000000000000000008152600401610c3591906124ae565b60405180910390fd5b610c4781610fc5565b50565b60007f01ffc9a7000000000000000000000000000000000000000000000000000000007bffffffffffffffffffffffffffffffffffffffffffffffffffffffff1916827bffffffffffffffffffffffffffffffffffffffffffffffffffffffff1916149050919050565b606060028054610cc3906129da565b80601f0160208091040260200160405190810160405280929190818152602001828054610cef906129da565b8015610d3c5780601f10610d1157610100808354040283529160200191610d3c565b820191906000526020600020905b815481529060010190602001808311610d1f57829003601f168201915b50505050509050919050565b606060006001610d578461139f565b01905060008167ffffffffffffffff811115610d7657610d75611fbd565b5b6040519080825280601f01601f191660200182016040528015610da85781602001600182028036833780820191505090505b509050600082602001820190505b600115610e0b578080600190039150507f3031323334353637383961626364656600000000000000000000000000000000600a86061a8153600a8581610dff57610dfe612d6c565b5b04945060008503610db6575b819350505050919050565b600033905090565b600073ffffffffffffffffffffffffffffffffffffffff168473ffffffffffffffffffffffffffffffffffffffff1603610e905760006040517f57f447ce000000000000000000000000000000000000000000000000000000008152600401610e8791906124ae565b60405180910390fd5b600073ffffffffffffffffffffffffffffffffffffffff168573ffffffffffffffffffffffffffffffffffffffff1603610f025760006040517f01a83514000000000000000000000000000000000000000000000000000000008152600401610ef991906124ae565b60405180910390fd5b610f0f85858585856114f2565b5050505050565b600060208202602084010151905092915050565b600060208202602084010151905092915050565b610f46610e16565b73ffffffffffffffffffffffffffffffffffffffff16610f64610672565b73ffffffffffffffffffffffffffffffffffffffff1614610fc357610f87610e16565b6040517f118cdaa7000000000000000000000000000000000000000000000000000000008152600401610fba91906124ae565b60405180910390fd5b565b6000600360009054906101000a900473ffffffffffffffffffffffffffffffffffffffff16905081600360006101000a81548173ffffffffffffffffffffffffffffffffffffffff021916908373ffffffffffffffffffffffffffffffffffffffff1602179055508173ffffffffffffffffffffffffffffffffffffffff168173ffffffffffffffffffffffffffffffffffffffff167f8be0079c531659141344cd1fd0a4f28419497f9722a3daafe3b4186f6b6457e060405160405180910390a35050565b600073ffffffffffffffffffffffffffffffffffffffff168273ffffffffffffffffffffffffffffffffffffffff16036110fd5760006040517fced3e1000000000000000000000000000000000000000000000000000000000081526004016110f491906124ae565b60405180910390fd5b80600160008573ffffffffffffffffffffffffffffffffffffffff1673ffffffffffffffffffffffffffffffffffffffff16815260200190815260200160002060008473ffffffffffffffffffffffffffffffffffffffff1673ffffffffffffffffffffffffffffffffffffffff16815260200190815260200160002060006101000a81548160ff0219169083151502179055508173ffffffffffffffffffffffffffffffffffffffff168373ffffffffffffffffffffffffffffffffffffffff167f17307eab39ab6107e8899845ad3d59bd9653f200f220920489ca2b5937696c31836040516111ee9190611ebe565b60405180910390a3505050565b600073ffffffffffffffffffffffffffffffffffffffff168473ffffffffffffffffffffffffffffffffffffffff160361126d5760006040517f57f447ce00000000000000000000000000000000000000000000000000000000815260040161126491906124ae565b60405180910390fd5b60008061127a85856115a4565b9150915061128c6000878484876114f2565b505050505050565b600073ffffffffffffffffffffffffffffffffffffffff168473ffffffffffffffffffffffffffffffffffffffff16036113065760006040517f57f447ce0000000000000000000000000000000000000000000000000000000081526004016112fd91906124ae565b60405180910390fd5b600073ffffffffffffffffffffffffffffffffffffffff168573ffffffffffffffffffffffffffffffffffffffff16036113785760006040517f01a8351400000000000000000000000000000000000000000000000000000000815260040161136f91906124ae565b60405180910390fd5b60008061138585856115a4565b9150915061139687878484876114f2565b50505050505050565b600080600090507a184f03e93ff9f4daa797ed6e38ed64bf6a1f01000000000000000083106113fd577a184f03e93ff9f4daa797ed6e38ed64bf6a1f01000000000000000083816113f3576113f2612d6c565b5b0492506040810190505b6d04ee2d6d415b85acef8100000000831061143a576d04ee2d6d415b85acef810000000083816114305761142f612d6c565b5b0492506020810190505b662386f26fc10000831061146957662386f26fc10000838161145f5761145e612d6c565b5b0492506010810190505b6305f5e1008310611492576305f5e100838161148857611487612d6c565b5b0492506008810190505b61271083106114b75761271083816114ad576114ac612d6c565b5b0492506004810190505b606483106114da57606483816114d0576114cf612d6c565b5b0492506002810190505b600a83106114e9576001810190505b80915050919050565b6114fe858585856115d4565b600073ffffffffffffffffffffffffffffffffffffffff168473ffffffffffffffffffffffffffffffffffffffff161461159d57600061153c610e16565b9050600184510361158c57600061155d600086610f2a90919063ffffffff16565b90506000611575600086610f2a90919063ffffffff16565b905061158583898985858961197c565b505061159b565b61159a818787878787611b30565b5b505b5050505050565b60608060405191506001825283602083015260408201905060018152826020820152604081016040529250929050565b805182511461161e57815181516040517f5b059991000000000000000000000000000000000000000000000000000000008152600401611615929190612953565b60405180910390fd5b6000611628610e16565b905060005b835181101561183757600061164b8286610f2a90919063ffffffff16565b905060006116628386610f2a90919063ffffffff16565b9050600073ffffffffffffffffffffffffffffffffffffffff168873ffffffffffffffffffffffffffffffffffffffff161461178f57600080600084815260200190815260200160002060008a73ffffffffffffffffffffffffffffffffffffffff1673ffffffffffffffffffffffffffffffffffffffff1681526020019081526020016000205490508181101561173757888183856040517f03dee4c500000000000000000000000000000000000000000000000000000000815260040161172e9493929190612d9b565b60405180910390fd5b81810360008085815260200190815260200160002060008b73ffffffffffffffffffffffffffffffffffffffff1673ffffffffffffffffffffffffffffffffffffffff16815260200190815260200160002081905550505b600073ffffffffffffffffffffffffffffffffffffffff168773ffffffffffffffffffffffffffffffffffffffff161461182a578060008084815260200190815260200160002060008973ffffffffffffffffffffffffffffffffffffffff1673ffffffffffffffffffffffffffffffffffffffff16815260200190815260200160002060008282546118229190612de0565b925050819055505b505080600101905061162d565b5060018351036118f6576000611857600085610f2a90919063ffffffff16565b9050600061186f600085610f2a90919063ffffffff16565b90508573ffffffffffffffffffffffffffffffffffffffff168773ffffffffffffffffffffffffffffffffffffffff168473ffffffffffffffffffffffffffffffffffffffff167fc3d58168c5ae7397731d063d5bbf3d657854427343f4c083240f7aacaa2d0f6285856040516118e7929190612953565b60405180910390a45050611975565b8373ffffffffffffffffffffffffffffffffffffffff168573ffffffffffffffffffffffffffffffffffffffff168273ffffffffffffffffffffffffffffffffffffffff167f4a39dc06d4c0dbc64b70af90fd698a233a518aa5d07e595d983b8c0526c8f7fb868660405161196c929190612e14565b60405180910390a45b5050505050565b60008473ffffffffffffffffffffffffffffffffffffffff163b1115611b28578373ffffffffffffffffffffffffffffffffffffffff1663f23a6e6187878686866040518663ffffffff1660e01b81526004016119dd959493929190612ea0565b6020604051808303816000875af1925050508015611a1957506040513d601f19601f82011682018060405250810190611a169190612f0f565b60015b611a9d573d8060008114611a49576040519150601f19603f3d011682016040523d82523d6000602084013e611a4e565b606091505b506000815103611a9557846040517f57f447ce000000000000000000000000000000000000000000000000000000008152600401611a8c91906124ae565b60405180910390fd5b805181602001fd5b63f23a6e6160e01b7bffffffffffffffffffffffffffffffffffffffffffffffffffffffff1916817bffffffffffffffffffffffffffffffffffffffffffffffffffffffff191614611b2657846040517f57f447ce000000000000000000000000000000000000000000000000000000008152600401611b1d91906124ae565b60405180910390fd5b505b505050505050565b60008473ffffffffffffffffffffffffffffffffffffffff163b1115611cdc578373ffffffffffffffffffffffffffffffffffffffff1663bc197c8187878686866040518663ffffffff1660e01b8152600401611b91959493929190612f3c565b6020604051808303816000875af1925050508015611bcd57506040513d601f19601f82011682018060405250810190611bca9190612f0f565b60015b611c51573d8060008114611bfd576040519150601f19603f3d011682016040523d82523d6000602084013e611c02565b606091505b506000815103611c4957846040517f57f447ce000000000000000000000000000000000000000000000000000000008152600401611c4091906124ae565b60405180910390fd5b805181602001fd5b63bc197c8160e01b7bffffffffffffffffffffffffffffffffffffffffffffffffffffffff1916817bffffffffffffffffffffffffffffffffffffffffffffffffffffffff191614611cda57846040517f57f447ce000000000000000000000000000000000000000000000000000000008152600401611cd191906124ae565b60405180910390fd5b505b505050505050565b6040518060800160405280600081526020016060815260200160608152602001606081525090565b6000604051905090565b600080fd5b600080fd5b600073ffffffffffffffffffffffffffffffffffffffff82169050919050565b6000611d4b82611d20565b9050919050565b611d5b81611d40565b8114611d6657600080fd5b50565b600081359050611d7881611d52565b92915050565b6000819050919050565b611d9181611d7e565b8114611d9c57600080fd5b50565b600081359050611dae81611d88565b92915050565b60008060408385031215611dcb57611dca611d16565b5b6000611dd985828601611d69565b9250506020611dea85828601611d9f565b9150509250929050565b611dfd81611d7e565b82525050565b6000602082019050611e186000830184611df4565b92915050565b60007fffffffff0000000000000000000000000000000000000000000000000000000082169050919050565b611e5381611e1e565b8114611e5e57600080fd5b50565b600081359050611e7081611e4a565b92915050565b600060208284031215611e8c57611e8b611d16565b5b6000611e9a84828501611e61565b91505092915050565b60008115159050919050565b611eb881611ea3565b82525050565b6000602082019050611ed36000830184611eaf565b92915050565b600060208284031215611eef57611eee611d16565b5b6000611efd84828501611d9f565b91505092915050565b600081519050919050565b600082825260208201905092915050565b60005b83811015611f40578082015181840152602081019050611f25565b60008484015250505050565b6000601f19601f8301169050919050565b6000611f6882611f06565b611f728185611f11565b9350611f82818560208601611f22565b611f8b81611f4c565b840191505092915050565b60006020820190508181036000830152611fb08184611f5d565b905092915050565b600080fd5b7f4e487b7100000000000000000000000000000000000000000000000000000000600052604160045260246000fd5b611ff582611f4c565b810181811067ffffffffffffffff8211171561201457612013611fbd565b5b80604052505050565b6000612027611d0c565b90506120338282611fec565b919050565b600067ffffffffffffffff82111561205357612052611fbd565b5b602082029050602081019050919050565b600080fd5b600061207c61207784612038565b61201d565b9050808382526020820190506020840283018581111561209f5761209e612064565b5b835b818110156120c857806120b48882611d9f565b8452602084019350506020810190506120a1565b5050509392505050565b600082601f8301126120e7576120e6611fb8565b5b81356120f7848260208601612069565b91505092915050565b600080fd5b600067ffffffffffffffff8211156121205761211f611fbd565b5b61212982611f4c565b9050602081019050919050565b82818337600083830152505050565b600061215861215384612105565b61201d565b90508281526020810184848401111561217457612173612100565b5b61217f848285612136565b509392505050565b600082601f83011261219c5761219b611fb8565b5b81356121ac848260208601612145565b91505092915050565b600080600080600060a086880312156121d1576121d0611d16565b5b60006121df88828901611d69565b95505060206121f088828901611d69565b945050604086013567ffffffffffffffff81111561221157612210611d1b565b5b61221d888289016120d2565b935050606086013567ffffffffffffffff81111561223e5761223d611d1b565b5b61224a888289016120d2565b925050608086013567ffffffffffffffff81111561226b5761226a611d1b565b5b61227788828901612187565b9150509295509295909350565b600067ffffffffffffffff82111561229f5761229e611fbd565b5b602082029050602081019050919050565b60006122c36122be84612284565b61201d565b905080838252602082019050602084028301858111156122e6576122e5612064565b5b835b8181101561230f57806122fb8882611d69565b8452602084019350506020810190506122e8565b5050509392505050565b600082601f83011261232e5761232d611fb8565b5b813561233e8482602086016122b0565b91505092915050565b6000806040838503121561235e5761235d611d16565b5b600083013567ffffffffffffffff81111561237c5761237b611d1b565b5b61238885828601612319565b925050602083013567ffffffffffffffff8111156123a9576123a8611d1b565b5b6123b5858286016120d2565b9150509250929050565b600081519050919050565b600082825260208201905092915050565b6000819050602082019050919050565b6123f481611d7e565b82525050565b600061240683836123eb565b60208301905092915050565b6000602082019050919050565b600061242a826123bf565b61243481856123ca565b935061243f836123db565b8060005b8381101561247057815161245788826123fa565b975061246283612412565b925050600181019050612443565b5085935050505092915050565b60006020820190508181036000830152612497818461241f565b905092915050565b6124a881611d40565b82525050565b60006020820190506124c3600083018461249f565b92915050565b6124d281611ea3565b81146124dd57600080fd5b50565b6000813590506124ef816124c9565b92915050565b6000806040838503121561250c5761250b611d16565b5b600061251a85828601611d69565b925050602061252b858286016124e0565b9150509250929050565b600082825260208201905092915050565b600061255182611f06565b61255b8185612535565b935061256b818560208601611f22565b61257481611f4c565b840191505092915050565b600060808301600083015161259760008601826123eb565b50602083015184820360208601526125af8282612546565b915050604083015184820360408601526125c98282612546565b915050606083015184820360608601526125e38282612546565b9150508091505092915050565b6000602082019050818103600083015261260a818461257f565b905092915050565b6000806040838503121561262957612628611d16565b5b600061263785828601611d69565b925050602061264885828601611d69565b9150509250929050565b600067ffffffffffffffff82111561266d5761266c611fbd565b5b61267682611f4c565b9050602081019050919050565b600061269661269184612652565b61201d565b9050828152602081018484840111156126b2576126b1612100565b5b6126bd848285612136565b509392505050565b600082601f8301126126da576126d9611fb8565b5b81356126ea848260208601612683565b91505092915050565b60008060006060848603121561270c5761270b611d16565b5b600084013567ffffffffffffffff81111561272a57612729611d1b565b5b612736868287016126c5565b935050602084013567ffffffffffffffff81111561275757612756611d1b565b5b612763868287016126c5565b925050604084013567ffffffffffffffff81111561278457612783611d1b565b5b612790868287016126c5565b9150509250925092565b600080600080600060a086880312156127b6576127b5611d16565b5b60006127c488828901611d69565b95505060206127d588828901611d69565b94505060406127e688828901611d9f565b93505060606127f788828901611d9f565b925050608086013567ffffffffffffffff81111561281857612817611d1b565b5b61282488828901612187565b9150509295509295909350565b60006020828403121561284757612846611d16565b5b600061285584828501611d69565b91505092915050565b7f4261646765207479706520646f6573206e6f7420657869737400000000000000600082015250565b6000612894601983611f11565b915061289f8261285e565b602082019050919050565b600060208201905081810360008301526128c381612887565b9050919050565b600081905092915050565b60006128e082611f06565b6128ea81856128ca565b93506128fa818560208601611f22565b80840191505092915050565b600061291282856128d5565b915061291e82846128d5565b91508190509392505050565b600060408201905061293f600083018561249f565b61294c602083018461249f565b9392505050565b60006040820190506129686000830185611df4565b6129756020830184611df4565b9392505050565b7f4e487b7100000000000000000000000000000000000000000000000000000000600052603260045260246000fd5b7f4e487b7100000000000000000000000000000000000000000000000000000000600052602260045260246000fd5b600060028204905060018216806129f257607f821691505b602082108103612a0557612a046129ab565b5b50919050565b7f4261646765207479706520646f65736e27742065786973740000000000000000600082015250565b6000612a41601883611f11565b9150612a4c82612a0b565b602082019050919050565b60006020820190508181036000830152612a7081612a34565b9050919050565b7f4e487b7100000000000000000000000000000000000000000000000000000000600052601160045260246000fd5b6000612ab182611d7e565b91507fffffffffffffffffffffffffffffffffffffffffffffffffffffffffffffffff8203612ae357612ae2612a77565b5b600182019050919050565b60008190508160005260206000209050919050565b60006020601f8301049050919050565b600082821b905092915050565b600060088302612b507fffffffffffffffffffffffffffffffffffffffffffffffffffffffffffffffff82612b13565b612b5a8683612b13565b95508019841693508086168417925050509392505050565b6000819050919050565b6000612b97612b92612b8d84611d7e565b612b72565b611d7e565b9050919050565b6000819050919050565b612bb183612b7c565b612bc5612bbd82612b9e565b848454612b20565b825550505050565b600090565b612bda612bcd565b612be5818484612ba8565b505050565b5b81811015612c0957612bfe600082612bd2565b600181019050612beb565b5050565b601f821115612c4e57612c1f81612aee565b612c2884612b03565b81016020851015612c37578190505b612c4b612c4385612b03565b830182612bea565b50505b505050565b600082821c905092915050565b6000612c7160001984600802612c53565b1980831691505092915050565b6000612c8a8383612c60565b9150826002028217905092915050565b612ca382611f06565b67ffffffffffffffff811115612cbc57612cbb611fbd565b5b612cc682546129da565b612cd1828285612c0d565b600060209050601f831160018114612d045760008415612cf2578287015190505b612cfc8582612c7e565b865550612d64565b601f198416612d1286612aee565b60005b82811015612d3a57848901518255600182019150602085019450602081019050612d15565b86831015612d575784890151612d53601f891682612c60565b8355505b6001600288020188555050505b505050505050565b7f4e487b7100000000000000000000000000000000000000000000000000000000600052601260045260246000fd5b6000608082019050612db0600083018761249f565b612dbd6020830186611df4565b612dca6040830185611df4565b612dd76060830184611df4565b95945050505050565b6000612deb82611d7e565b9150612df683611d7e565b9250828201905080821115612e0e57612e0d612a77565b5b92915050565b60006040820190508181036000830152612e2e818561241f565b90508181036020830152612e42818461241f565b90509392505050565b600081519050919050565b600082825260208201905092915050565b6000612e7282612e4b565b612e7c8185612e56565b9350612e8c818560208601611f22565b612e9581611f4c565b840191505092915050565b600060a082019050612eb5600083018861249f565b612ec2602083018761249f565b612ecf6040830186611df4565b612edc6060830185611df4565b8181036080830152612eee8184612e67565b90509695505050505050565b600081519050612f0981611e4a565b92915050565b600060208284031215612f2557612f24611d16565b5b6000612f3384828501612efa565b91505092915050565b600060a082019050612f51600083018861249f565b612f5e602083018761249f565b8181036040830152612f70818661241f565b90508181036060830152612f84818561241f565b90508181036080830152612f988184612e67565b9050969550505050505056fea26469706673582212202270b8f744a1418cd2a456421e3b3fc7cec9d8b1db23c28bb1824a8acfac8b1864736f6c634300081c003368747470733a2f2f7461736b636861696e2e6578616d706c652f6170692f62616467652f",
  "linkReferences": {},
  "deployedLinkReferences": {}
}