{
  "_format": "hh-sol-artifact-1",
  "contractName": "TaskBoard",
  "sourceName": "contracts/Taskchain.sol",
  "abi": [
    {
      "anonymous": false,
      "inputs": [
        {
          "indexed": true,
          "internalType": "uint256",
          "name": "taskId",
          "type": "uint256"
        },
        {
          "indexed": true,
          "internalType": "address",
          "name": "creator",
          "type": "address"
        },
        {
          "indexed": false,
          "internalType": "string",
          "name": "title",
          "type": "string"
        }
      ],
      "name": "TaskCreated",
      "type": "event"
    },
    {
      "anonymous": false,
      "inputs": [
        {
          "indexed": true,
          "internalType": "uint256",
          "name": "taskId",
          "type": "uint256"
        },
        {
          "indexed": false,
          "internalType": "enum TaskBoard.TaskStatus",
          "name": "newStatus",
          "type": "uint8"
        }
      ],
      "name": "TaskStatusChanged",
      "type": "event"
    },
    {
      "inputs": [
        {
          "internalType": "uint256",
          "name": "taskId",
          "type": "uint256"
        },
        {
          "internalType": "enum TaskBoard.TaskStatus",
          "name": "newStatus",
          "type": "uint8"
        }
      ],
      "name": "changeTaskStatus",
      "outputs": [],
      "stateMutability": "nonpayable",
      "type": "function"
    },
    {
      "inputs": [
        {
          "internalType": "string",
          "name": "title",
          "type": "string"
        },
        {
          "internalType": "string",
          "name": "description",
          "type": "string"
        }
      ],
      "name": "createTask",
      "outputs": [
        {
          "internalType": "uint256",
          "name": "",
          "type": "uint256"
        }
      ],
      "stateMutability": "nonpayable",
      "type": "function"
    },
    {
      "inputs": [
        {
          "internalType": "uint256",
          "name": "taskId",
          "type": "uint256"
        }
      ],
      "name": "getTask",
      "outputs": [
        {
          "components": [
            {
              "internalType": "uint256",
              "name": "id",
              "type": "uint256"
            },
            {
              "internalType": "address",
              "name": "creator",
              "type": "address"
            },
            {
              "internalType": "string",
              "name": "title",
              "type": "string"
            },
            {
              "internalType": "string",
              "name": "description",
              "type": "string"
            },
            {
              "internalType": "uint256",
              "name": "createdAt",
              "type": "uint256"
            },
            {
              "internalType": "uint256",
              "name": "completedAt",
              "type": "uint256"
            },
            {
              "internalType": "enum TaskBoard.TaskStatus",
              "name": "status",
              "type": "uint8"
            }
          ],
          "internalType": "struct TaskBoard.Task",
          "name": "",
          "type": "tuple"
        }
      ],
      "stateMutability": "view",
      "type": "function"
    },
    {
      "inputs": [],
      "name": "getTotalTasks",
      "outputs": [
        {
          "internalType": "uint256",
          "name": "",
          "type": "uint256"
        }
      ],
      "stateMutability": "view",
      "type": "function"
    },
    {
      "inputs": [
        {
          "internalType": "address",
          "name": "user",
          "type": "address"
        }
      ],
      "name": "getUserTasks",
      "outputs": [
        {
          "internalType": "uint256[]",
          "name": "",
          "type": "uint256[]"
        }
      ],
      "stateMutability": "view",
      "type": "function"
    }
  ],
  "bytecode": "0x608060405260008055348015601357600080fd5b50611371806100236000396000f3fe608060405234801561001057600080fd5b50600436106100575760003560e01c80631d65e77e1461005c578063292a45851461008c5780633c93b905146100bc5780638775adcb146100da57806395d57660146100f6575b600080fd5b6100766004803603810190610071919061087d565b610126565b6040516100839190610aa4565b60405180910390f35b6100a660048036038101906100a19190610bfb565b610326565b6040516100b39190610c82565b60405180910390f35b6100c461053e565b6040516100d19190610c82565b60405180910390f35b6100f460048036038101906100ef9190610cc2565b610547565b005b610110600480360381019061010b9190610d2e565b610737565b60405161011d9190610e0a565b60405180910390f35b61012e6107ce565b600160008381526020019081526020016000206040518060e0016040529081600082015481526020016001820160009054906101000a900473ffffffffffffffffffffffffffffffffffffffff1673ffffffffffffffffffffffffffffffffffffffff1673ffffffffffffffffffffffffffffffffffffffff1681526020016002820180546101bc90610e5b565b80601f01602080910402602001604051908101604052809291908181526020018280546101e890610e5b565b80156102355780601f1061020a57610100808354040283529160200191610235565b820191906000526020600020905b81548152906001019060200180831161021857829003601f168201915b5050505050815260200160038201805461024e90610e5b565b80601f016020809104026020016040519081016040528092919081815260200182805461027a90610e5b565b80156102c75780601f1061029c576101008083540402835291602001916102c7565b820191906000526020600020905b8154815290600101906020018083116102aa57829003601f168201915b5050505050815260200160048201548152602001600582015481526020016006820160009054906101000a900460ff1660038111156103095761030861098a565b5b600381111561031b5761031a61098a565b5b815250509050919050565b600080600054905060008081548092919061034090610ebb565b919050555060006040518060e001604052808381526020013373ffffffffffffffffffffffffffffffffffffffff16815260200186815260200185815260200142815260200160008152602001600060038111156103a1576103a061098a565b5b815250905080600160008481526020019081526020016000206000820151816000015560208201518160010160006101000a81548173ffffffffffffffffffffffffffffffffffffffff021916908373ffffffffffffffffffffffffffffffffffffffff160217905550604082015181600201908161042091906110af565b50606082015181600301908161043691906110af565b506080820151816004015560a0820151816005015560c08201518160060160006101000a81548160ff021916908360038111156104765761047561098a565b5b0217905550905050600260003373ffffffffffffffffffffffffffffffffffffffff1673ffffffffffffffffffffffffffffffffffffffff1681526020019081526020016000208290806001815401808255809150506001900390600052602060002001600090919091909150553373ffffffffffffffffffffffffffffffffffffffff16827f5b2493258cbc7169ad9389516998320ce25dc27637cea28ddd0d033af122bfa68760405161052b91906111cb565b60405180910390a3819250505092915050565b60008054905090565b3373ffffffffffffffffffffffffffffffffffffffff166001600084815260200190815260200160002060010160009054906101000a900473ffffffffffffffffffffffffffffffffffffffff1673ffffffffffffffffffffffffffffffffffffffff16146105eb576040517f08c379a00000000000000000000000000000000000000000000000000000000081526004016105e29061125f565b60405180910390fd5b600260038111156105ff576105fe61098a565b5b6001600084815260200190815260200160002060060160009054906101000a900460ff1660038111156106355761063461098a565b5b03610675576040517f08c379a000000000000000000000000000000000000000000000000000000000815260040161066c906112f1565b60405180910390fd5b806001600084815260200190815260200160002060060160006101000a81548160ff021916908360038111156106ae576106ad61098a565b5b0217905550600260038111156106c7576106c661098a565b5b8160038111156106da576106d961098a565b5b036106fb574260016000848152602001908152602001600020600501819055505b817fd76ef80cfb1ce0c70d0cbc0ab1b9f2f298a78f9fca5c841be963ae9a5d721bb48260405161072b9190611320565b60405180910390a25050565b6060600260008373ffffffffffffffffffffffffffffffffffffffff1673ffffffffffffffffffffffffffffffffffffffff1681526020019081526020016000208054806020026020016040519081016040528092919081815260200182805480156107c257602002820191906000526020600020905b8154815260200190600101908083116107ae575b50505050509050919050565b6040518060e0016040528060008152602001600073ffffffffffffffffffffffffffffffffffffffff168152602001606081526020016060815260200160008152602001600081526020016000600381111561082d5761082c61098a565b5b81525090565b6000604051905090565b600080fd5b600080fd5b6000819050919050565b61085a81610847565b811461086557600080fd5b50565b60008135905061087781610851565b92915050565b6000602082840312156108935761089261083d565b5b60006108a184828501610868565b91505092915050565b6108b381610847565b82525050565b600073ffffffffffffffffffffffffffffffffffffffff82169050919050565b60006108e4826108b9565b9050919050565b6108f4816108d9565b82525050565b600081519050919050565b600082825260208201905092915050565b60005b83811015610934578082015181840152602081019050610919565b60008484015250505050565b6000601f19601f8301169050919050565b600061095c826108fa565b6109668185610905565b9350610976818560208601610916565b61097f81610940565b840191505092915050565b7f4e487b7100000000000000000000000000000000000000000000000000000000600052602160045260246000fd5b600481106109ca576109c961098a565b5b50565b60008190506109db826109b9565b919050565b60006109eb826109cd565b9050919050565b6109fb816109e0565b82525050565b600060e083016000830151610a1960008601826108aa565b506020830151610a2c60208601826108eb565b5060408301518482036040860152610a448282610951565b91505060608301518482036060860152610a5e8282610951565b9150506080830151610a7360808601826108aa565b5060a0830151610a8660a08601826108aa565b5060c0830151610a9960c08601826109f2565b508091505092915050565b60006020820190508181036000830152610abe8184610a01565b905092915050565b600080fd5b600080fd5b7f4e487b7100000000000000000000000000000000000000000000000000000000600052604160045260246000fd5b610b0882610940565b810181811067ffffffffffffffff82111715610b2757610b26610ad0565b5b80604052505050565b6000610b3a610833565b9050610b468282610aff565b919050565b600067ffffffffffffffff821115610b6657610b65610ad0565b5b610b6f82610940565b9050602081019050919050565b82818337600083830152505050565b6000610b9e610b9984610b4b565b610b30565b905082815260208101848484011115610bba57610bb9610acb565b5b610bc5848285610b7c565b509392505050565b600082601f830112610be257610be1610ac6565b5b8135610bf2848260208601610b8b565b91505092915050565b60008060408385031215610c1257610c1161083d565b5b600083013567ffffffffffffffff811115610c3057610c2f610842565b5b610c3c85828601610bcd565b925050602083013567ffffffffffffffff811115610c5d57610c5c610842565b5b610c6985828601610bcd565b9150509250929050565b610c7c81610847565b82525050565b6000602082019050610c976000830184610c73565b92915050565b60048110610caa57600080fd5b50565b600081359050610cbc81610c9d565b92915050565b60008060408385031215610cd957610cd861083d565b5b6000610ce785828601610868565b9250506020610cf885828601610cad565b9150509250929050565b610d0b816108d9565b8114610d1657600080fd5b50565b600081359050610d2881610d02565b92915050565b600060208284031215610d4457610d4361083d565b5b6000610d5284828501610d19565b91505092915050565b600081519050919050565b600082825260208201905092915050565b6000819050602082019050919050565b6000610d9383836108aa565b60208301905092915050565b6000602082019050919050565b6000610db782610d5b565b610dc18185610d66565b9350610dcc83610d77565b8060005b83811015610dfd578151610de48882610d87565b9750610def83610d9f565b925050600181019050610dd0565b5085935050505092915050565b60006020820190508181036000830152610e248184610dac565b905092915050565b7f4e487b7100000000000000000000000000000000000000000000000000000000600052602260045260246000fd5b60006002820490506001821680610e7357607f821691505b602082108103610e8657610e85610e2c565b5b50919050565b7f4e487b7100000000000000000000000000000000000000000000000000000000600052601160045260246000fd5b6000610ec682610847565b91507fffffffffffffffffffffffffffffffffffffffffffffffffffffffffffffffff8203610ef857610ef7610e8c565b5b600182019050919050565b60008190508160005260206000209050919050565b60006020601f8301049050919050565b600082821b905092915050565b600060088302610f657fffffffffffffffffffffffffffffffffffffffffffffffffffffffffffffffff82610f28565b610f6f8683610f28565b95508019841693508086168417925050509392505050565b6000819050919050565b6000610fac610fa7610fa284610847565b610f87565b610847565b9050919050565b6000819050919050565b610fc683610f91565b610fda610fd282610fb3565b848454610f35565b825550505050565b600090565b610fef610fe2565b610ffa818484610fbd565b505050565b5b8181101561101e57611013600082610fe7565b600181019050611000565b5050565b601f8211156110635761103481610f03565b61103d84610f18565b8101602085101561104c578190505b61106061105885610f18565b830182610fff565b50505b505050565b600082821c905092915050565b600061108660001984600802611068565b1980831691505092915050565b600061109f8383611075565b9150826002028217905092915050565b6110b8826108fa565b67ffffffffffffffff8111156110d1576110d0610ad0565b5b6110db8254610e5b565b6110e6828285611022565b600060209050601f8311600181146111195760008415611107578287015190505b6111118582611093565b865550611179565b601f19841661112786610f03565b60005b8281101561114f5784890151825560018201915060208501945060208101905061112a565b8683101561116c5784890151611168601f891682611075565b8355505b6001600288020188555050505b505050505050565b600082825260208201905092915050565b600061119d826108fa565b6111a78185611181565b93506111b7818560208601610916565b6111c081610940565b840191505092915050565b600060208201905081810360008301526111e58184611192565b905092915050565b7f4f6e6c79207461736b2063726561746f722063616e206368616e67652073746160008201527f747573206f6620746865207461736b0000000000000000000000000000000000602082015250565b6000611249602f83611181565b9150611254826111ed565b604082019050919050565b600060208201905081810360008301526112788161123c565b9050919050565b7f436f6d706c65746564207461736b732063616e6e6f74206265206368616e676560008201527f6400000000000000000000000000000000000000000000000000000000000000602082015250565b60006112db602183611181565b91506112e68261127f565b604082019050919050565b6000602082019050818103600083015261130a816112ce565b9050919050565b61131a816109e0565b82525050565b60006020820190506113356000830184611311565b9291505056fea264697066735822122041fce6b2975f2cd840be5bb72af01cfba706182ec73f583f7235ecce329be7af64736f6c634300081c0033",
  "linkReferences": {},
  "deployedLinkReferences": {}
}